{
  "_format": "hh-sol-artifact-1",
  "contractName": "Lottery",
  "sourceName": "contracts/lottery.sol",
  "abi": [
    {
      "inputs": [
        {
          "internalType": "address",
          "name": "vrfCoordinatorV2",
          "type": "address"
        },
        {
          "internalType": "uint256",
          "name": "_entrancefee",
          "type": "uint256"
        },
        {
          "internalType": "bytes32",
          "name": "gasLane",
          "type": "bytes32"
        },
        {
          "internalType": "uint64",
          "name": "subscriptionId",
          "type": "uint64"
        },
        {
          "internalType": "uint32",
          "name": "callbackGasLimit",
          "type": "uint32"
        },
        {
          "internalType": "uint256",
          "name": "interval",
          "type": "uint256"
        }
      ],
      "stateMutability": "nonpayable",
      "type": "constructor"
    },
    {
      "inputs": [],
      "name": "Lottery__LotteryNotOpen",
      "type": "error"
    },
    {
      "inputs": [],
      "name": "Lottery__NotEnoughETHEntered",
      "type": "error"
    },
    {
      "inputs": [],
      "name": "Lottery__TransferFailed",
      "type": "error"
    },
    {
      "inputs": [
        {
          "internalType": "uint256",
          "name": "currentBalance",
          "type": "uint256"
        },
        {
          "internalType": "uint256",
          "name": "numPlayers",
          "type": "uint256"
        },
        {
          "internalType": "uint256",
          "name": "lotteryState",
          "type": "uint256"
        }
      ],
      "name": "Lottery__UpkeepNotNeeded",
      "type": "error"
    },
    {
      "inputs": [
        {
          "internalType": "address",
          "name": "have",
          "type": "address"
        },
        {
          "internalType": "address",
          "name": "want",
          "type": "address"
        }
      ],
      "name": "OnlyCoordinatorCanFulfill",
      "type": "error"
    },
    {
      "anonymous": false,
      "inputs": [
        {
          "indexed": false,
          "internalType": "address",
          "name": "player",
          "type": "address"
        },
        {
          "indexed": false,
          "internalType": "uint256",
          "name": "amount",
          "type": "uint256"
        }
      ],
      "name": "Lottery__PlayerEntered",
      "type": "event"
    },
    {
      "anonymous": false,
      "inputs": [
        {
          "indexed": true,
          "internalType": "uint256",
          "name": "requestId",
          "type": "uint256"
        }
      ],
      "name": "RequestedLotteryWinner",
      "type": "event"
    },
    {
      "anonymous": false,
      "inputs": [
        {
          "indexed": true,
          "internalType": "address",
          "name": "player",
          "type": "address"
        }
      ],
      "name": "WinnerPicked",
      "type": "event"
    },
    {
      "inputs": [
        {
          "internalType": "bytes",
          "name": "",
          "type": "bytes"
        }
      ],
      "name": "checkUpkeep",
      "outputs": [
        {
          "internalType": "bool",
          "name": "upkeepNeeded",
          "type": "bool"
        },
        {
          "internalType": "bytes",
          "name": "",
          "type": "bytes"
        }
      ],
      "stateMutability": "view",
      "type": "function"
    },
    {
      "inputs": [],
      "name": "enterLottery",
      "outputs": [],
      "stateMutability": "payable",
      "type": "function"
    },
    {
      "inputs": [],
      "name": "getEntranceFee",
      "outputs": [
        {
          "internalType": "uint256",
          "name": "",
          "type": "uint256"
        }
      ],
      "stateMutability": "view",
      "type": "function"
    },
    {
      "inputs": [],
      "name": "getInterval",
      "outputs": [
        {
          "internalType": "uint256",
          "name": "",
          "type": "uint256"
        }
      ],
      "stateMutability": "view",
      "type": "function"
    },
    {
      "inputs": [],
      "name": "getLastTimeStamp",
      "outputs": [
        {
          "internalType": "uint256",
          "name": "",
          "type": "uint256"
        }
      ],
      "stateMutability": "view",
      "type": "function"
    },
    {
      "inputs": [],
      "name": "getLotteryState",
      "outputs": [
        {
          "internalType": "enum Lottery.LotteryState",
          "name": "",
          "type": "uint8"
        }
      ],
      "stateMutability": "view",
      "type": "function"
    },
    {
      "inputs": [],
      "name": "getNumWords",
      "outputs": [
        {
          "internalType": "uint256",
          "name": "",
          "type": "uint256"
        }
      ],
      "stateMutability": "pure",
      "type": "function"
    },
    {
      "inputs": [],
      "name": "getNumberOfPlayers",
      "outputs": [
        {
          "internalType": "uint256",
          "name": "",
          "type": "uint256"
        }
      ],
      "stateMutability": "view",
      "type": "function"
    },
    {
      "inputs": [
        {
          "internalType": "uint256",
          "name": "index",
          "type": "uint256"
        }
      ],
      "name": "getPlayer",
      "outputs": [
        {
          "internalType": "address",
          "name": "",
          "type": "address"
        }
      ],
      "stateMutability": "view",
      "type": "function"
    },
    {
      "inputs": [],
      "name": "getRecentWinner",
      "outputs": [
        {
          "internalType": "address",
          "name": "",
          "type": "address"
        }
      ],
      "stateMutability": "view",
      "type": "function"
    },
    {
      "inputs": [],
      "name": "getRequestConfirmations",
      "outputs": [
        {
          "internalType": "uint256",
          "name": "",
          "type": "uint256"
        }
      ],
      "stateMutability": "pure",
      "type": "function"
    },
    {
      "inputs": [
        {
          "internalType": "bytes",
          "name": "",
          "type": "bytes"
        }
      ],
      "name": "performUpkeep",
      "outputs": [],
      "stateMutability": "nonpayable",
      "type": "function"
    },
    {
      "inputs": [
        {
          "internalType": "uint256",
          "name": "requestId",
          "type": "uint256"
        },
        {
          "internalType": "uint256[]",
          "name": "randomWords",
          "type": "uint256[]"
        }
      ],
      "name": "rawFulfillRandomWords",
      "outputs": [],
      "stateMutability": "nonpayable",
      "type": "function"
    },
    {
      "inputs": [],
      "name": "requestRandomWinner",
      "outputs": [],
      "stateMutability": "nonpayable",
      "type": "function"
    }
  ],
  "bytecode": "0x6101606040523480156200001257600080fd5b5060405162002e3a38038062002e3a8339818101604052810190620000389190620004b5565b858073ffffffffffffffffffffffffffffffffffffffff1660808173ffffffffffffffffffffffffffffffffffffffff1660601b8152505050620000a57f6aaeeea13fb2d85307de9350e172fce605aa5857e1e21ae0a4d382110fcecfa760001b6200043f60201b60201c565b620000d97fb3a5a2bf8c05313977ec4971e52c22f76cb3279fa510e4d1ce8902289b62a64160001b6200043f60201b60201c565b6200010d7fc814c309f4c722a435bb4ac27157d7872b0ffc779b675dbe8e4169eed6570ad660001b6200043f60201b60201c565b8460a08181525050620001497f79f4eae8f751f22bcd68bd37e427eebee783c4e2bb29bdcbdaeadb5f5da4b95c60001b6200043f60201b60201c565b6200017d7fc0b2962eaed0f6b20a6d96ef18dc235b20b4618454c1c760802f40e0802ca0bd60001b6200043f60201b60201c565b8573ffffffffffffffffffffffffffffffffffffffff166101208173ffffffffffffffffffffffffffffffffffffffff1660601b81525050620001e97f748193d6cdaf8df688c3db50c4e5fb7213bd0b2307ccced978306f01b966b70160001b6200043f60201b60201c565b6200021d7f9582663db22b7cd35b19b4d160b4a8ee3a3089b721dd7a1303e2633187821a4460001b6200043f60201b60201c565b8360c08181525050620002597f4eea72fb6fae991cf24091ecbaf72de24bd33c74ae3773a6672f24a8a7c7afa660001b6200043f60201b60201c565b6200028d7fccd0a08619a15bd04560277b341c31e14980309254fa600dc097cf01d8b0c00e60001b6200043f60201b60201c565b8267ffffffffffffffff1660e08167ffffffffffffffff1660c01b81525050620002e07fd5026561c04f84d7ec3cdfd3a9905356664088c63459a9c940697f6f8fbc449760001b6200043f60201b60201c565b620003147fba73f36ceceea826d966b74941b5f8e6834aad6aeedce7de61d1df6c853b791e60001b6200043f60201b60201c565b8163ffffffff166101008163ffffffff1660e01b81525050620003607f31bf55e99b7bed9f1a5f6ca9d2dacc6f908e5df5f89fe495ed59d70190a6ae6960001b6200043f60201b60201c565b620003947f116b11d0fd42f60187c388ffc9862a87f808877d71aabfc7969860eaa3faf00b60001b6200043f60201b60201c565b6000600360006101000a81548160ff02191690836001811115620003bd57620003bc620005bd565b5b0217905550620003f67fbb322b63f4e6a1bc04a1190f42d06b146c36f8e2d333d69c84b4163d9b65469160001b6200043f60201b60201c565b6200042a7f49d6232e44589c2e6d4d61d64dd152e93f3b9d4f74475de5f3e1c853268a9acd60001b6200043f60201b60201c565b80610140818152505050505050505062000673565b50565b6000815190506200045381620005f1565b92915050565b6000815190506200046a816200060b565b92915050565b600081519050620004818162000625565b92915050565b60008151905062000498816200063f565b92915050565b600081519050620004af8162000659565b92915050565b60008060008060008060c08789031215620004d557620004d4620005ec565b5b6000620004e589828a0162000442565b9650506020620004f889828a0162000470565b95505060406200050b89828a0162000459565b94505060606200051e89828a016200049e565b93505060806200053189828a0162000487565b92505060a06200054489828a0162000470565b9150509295509295509295565b60006200055e826200056f565b9050919050565b6000819050919050565b600073ffffffffffffffffffffffffffffffffffffffff82169050919050565b6000819050919050565b600063ffffffff82169050919050565b600067ffffffffffffffff82169050919050565b7f4e487b7100000000000000000000000000000000000000000000000000000000600052602160045260246000fd5b600080fd5b620005fc8162000551565b81146200060857600080fd5b50565b620006168162000565565b81146200062257600080fd5b50565b62000630816200058f565b81146200063c57600080fd5b50565b6200064a8162000599565b81146200065657600080fd5b50565b6200066481620005a9565b81146200067057600080fd5b50565b60805160601c60a05160c05160e05160c01c6101005160e01c6101205160601c6101405161272f6200070b60003960008181610f3001526111bc01526000818161075c0152610ab50152600081816107dc0152610b350152600081816107b90152610b120152600081816107980152610af10152600081816103b001526112660152600081816103d6015261042a015261272f6000f3fe6080604052600436106100dd5760003560e01c80636b68c03c1161007f578063c1af578511610059578063c1af57851461028b578063c1c244e814610295578063e55ae4e8146102c0578063fd6673f5146102fd576100dd565b80636b68c03c146101f75780636e04ff0d1461022257806391ad27b414610260576100dd565b8063473f1ddc116100bb578063473f1ddc1461015f578063522a1f0b1461018a57806353a2c19a146101a15780635f1b0fd8146101cc576100dd565b806309bc33a7146100e25780631fe543e31461010d5780634585e33b14610136575b600080fd5b3480156100ee57600080fd5b506100f7610328565b6040516101049190612335565b60405180910390f35b34801561011957600080fd5b50610134600480360381019061012f91906120e5565b6103d4565b005b34801561014257600080fd5b5061015d60048036038101906101589190611ff5565b610494565b005b34801561016b57600080fd5b506101746108fc565b604051610181919061222a565b60405180910390f35b34801561019657600080fd5b5061019f6109aa565b005b3480156101ad57600080fd5b506101b6610c52565b6040516101c39190612335565b60405180910390f35b3480156101d857600080fd5b506101e1610ce5565b6040516101ee9190612335565b60405180910390f35b34801561020357600080fd5b5061020c610d76565b604051610219919061231a565b60405180910390f35b34801561022e57600080fd5b5061024960048036038101906102449190612042565b610e11565b604051610257929190612297565b60405180910390f35b34801561026c57600080fd5b50610275611134565b6040516102829190612335565b60405180910390f35b6102936111e0565b005b3480156102a157600080fd5b506102aa6115d9565b6040516102b79190612335565b60405180910390f35b3480156102cc57600080fd5b506102e760048036038101906102e2919061208b565b611667565b6040516102f4919061222a565b60405180910390f35b34801561030957600080fd5b50610312611733565b60405161031f9190612335565b60405180910390f35b60006103567f12a9034cf9bc91ec7448461918d654b51b9a97e538354f7061f8ed089dba7ebd60001b6117c4565b6103827f8fbd4d2e26e2746212ef68c892c3c4ed5a997ad8970d3e7e4c4971eaa5a4c08360001b6117c4565b6103ae7fbac17f87b2f543937e2f5c3cf8ddf1517ecb4d018504204f418f9859b58c513460001b6117c4565b7f0000000000000000000000000000000000000000000000000000000000000000905090565b7f000000000000000000000000000000000000000000000000000000000000000073ffffffffffffffffffffffffffffffffffffffff163373ffffffffffffffffffffffffffffffffffffffff161461048657337f00000000000000000000000000000000000000000000000000000000000000006040517f1cf993f400000000000000000000000000000000000000000000000000000000815260040161047d929190612245565b60405180910390fd5b61049082826117c7565b5050565b6104c07f5984fadab9c0c6c83459a1a27ef16c4ca00649d1ff989c0f0fcd04cdf69f4b0f60001b6117c4565b6104ec7f4eca880dd06ee5e8a5c9087c2d8db86bfb79a32ef6e7bac0040a5b609fb5493060001b6117c4565b6105187f3e77230879b5e5e560320e9117cdb34050cef824b868a9d891f44542102562d260001b6117c4565b600061053260405180602001604052806000815250610e11565b5090506105617f8c39edef55ee746c8f0fb2ec4c2d7f1a1cd7d23631eb36b16425124229bd6a1f60001b6117c4565b61058d7ff3cf482ea8d2f8dbc8459c10b6c98dec43c12014e74b4cef6ca9ac53fa25226d60001b6117c4565b80610651576105be7f43094b68b99545c286107cdc9e31adb0a19a9b9cb701e998826bf4cfc3a9689860001b6117c4565b6105ea7f918a625143b4102cd3f698ac9955e56531d354b66f777a9959fc01575fa9614260001b6117c4565b47600080549050600360009054906101000a900460ff1660018111156106135761061261260f565b5b6040517f6e195f2500000000000000000000000000000000000000000000000000000000815260040161064893929190612350565b60405180910390fd5b61067d7f44e572e7fc1aa629c931a3bbc9e8f3c7dca50e19fec2317188adc09e0399c1b960001b6117c4565b6106a97fa7147171839a6d6fde1a692799eee81ed04a1c94e82add0c1ea2ed6b013c05f260001b6117c4565b6106d57f981c0ac1d8959e5501b94e038577db205786dbc383b1ff07c99428b414486fa560001b6117c4565b6001600360006101000a81548160ff021916908360018111156106fb576106fa61260f565b5b021790555061072c7f0d78990036b01d545cf8c4e0fae62a8299ffa9bee2dc2519953e9ccc80282e6160001b6117c4565b6107587f03d8929fc9ac8950b8bb1dfe04a48bacab245eae013dbc28bc83941fcfc402b760001b6117c4565b60007f000000000000000000000000000000000000000000000000000000000000000073ffffffffffffffffffffffffffffffffffffffff16635d3b1d307f00000000000000000000000000000000000000000000000000000000000000007f000000000000000000000000000000000000000000000000000000000000000060037f000000000000000000000000000000000000000000000000000000000000000060016040518663ffffffff1660e01b815260040161081d9594939291906122c7565b602060405180830381600087803b15801561083757600080fd5b505af115801561084b573d6000803e3d6000fd5b505050506040513d601f19601f8201168201806040525081019061086f91906120b8565b905061089d7fab1321a84cb567d3b35cc337cca93620244de21d5a8b420c7ba6a29f80c9dbfa60001b6117c4565b6108c97f82e7ddbb268f7a9be0f6f0e3bf03f613e965417a3a246ef6865336c7f5ee267160001b6117c4565b807febf56642252004c18a776f30d528e7a0ce8c5db14b6596fb6550f630c8a24c6c60405160405180910390a250505050565b600061092a7f321892b1c0c0ea4c7d4792307b55a5b110a94404567b774fdcd8929e041d4e1f60001b6117c4565b6109567f2de7b645c45b7db97169cee03849cef28bff63d2d74ee2e744c0e0015ad5186060001b6117c4565b6109827feb55ef6f9ceefae32086a676bc1140e43000d7da145bb7af6654ae6a8aab29ad60001b6117c4565b600160009054906101000a900473ffffffffffffffffffffffffffffffffffffffff16905090565b6109d67f5a544a29f68ce32cabfc14b08f6465c24d6d09280b256f1f8d3bfafc31e2439d60001b6117c4565b610a027fb74cdae02f3b6bae6edfd59a4f3bf514a8e77b658e0f8095f27ee93cff12a5ba60001b6117c4565b610a2e7fd82c04c1c8d92125992834ecc701acc0dc227b00876da2e094da7cdd00bdf44660001b6117c4565b6001600360006101000a81548160ff02191690836001811115610a5457610a5361260f565b5b0217905550610a857f8f640cd73dee6c035c5fd31c66a5d2cbeb318aef470ac0b2fae7dcf653927b0960001b6117c4565b610ab17fdb99398e6b0753219123b8e8fb6d706d94a0959810608b98cf6033e81250f75760001b6117c4565b60007f000000000000000000000000000000000000000000000000000000000000000073ffffffffffffffffffffffffffffffffffffffff16635d3b1d307f00000000000000000000000000000000000000000000000000000000000000007f000000000000000000000000000000000000000000000000000000000000000060037f000000000000000000000000000000000000000000000000000000000000000060016040518663ffffffff1660e01b8152600401610b769594939291906122c7565b602060405180830381600087803b158015610b9057600080fd5b505af1158015610ba4573d6000803e3d6000fd5b505050506040513d601f19601f82011682018060405250810190610bc891906120b8565b9050610bf67f8938f46009f5870af82d165c08b866d24b33528e1ac56a705e558978af7390f660001b6117c4565b610c227fb3391d0e622af073ba6ac237bf27c9ede76d3565e520b440f20622d910e899fe60001b6117c4565b807febf56642252004c18a776f30d528e7a0ce8c5db14b6596fb6550f630c8a24c6c60405160405180910390a250565b6000610c807fa15fad0a3623b0fb730e0ac4a5f538f2914d3b6e0a9a1092f02e7bf7535ac2bd60001b6117c4565b610cac7f4598cadb54c2acdd0a73ef8f760b6b553985400d5a27e4037a0bb855f884730460001b6117c4565b610cd87f33630fcce01101f672e3c135dc3b71ddbdd6a4d46dbec23fe927823d388394e860001b6117c4565b600163ffffffff16905090565b6000610d137f541fcb947b988fb00f8d97abc7c832e7003c8570f2c6a433d7cd26292b2e31e260001b6117c4565b610d3f7f757c005e55062fac1f1829ba6fa8f8d3ecc2299a83a46746bcc38dc2cadff6b760001b6117c4565b610d6b7f6eebc00d6e6c13b916cb1d45995c7406c99ae3e511d64b261b7823612cf1a11f60001b6117c4565b600361ffff16905090565b6000610da47faedeb1cce7111317a6c95780718a8d3843e58397dc3ba389aefd2d875b29efab60001b6117c4565b610dd07f4c76194cac87119b0861a01e062a19cafe0da608b66d998344601b4c59a79eec60001b6117c4565b610dfc7f5c13774b03517406ae17f4e8ffb3fd78ec8fe8c240539928ed1c81154dd2bbb560001b6117c4565b600360009054906101000a900460ff16905090565b60006060610e417f74d9b579a45f13c2b9f034cc3218554ea458aa6f62d507172c3eab5279ada2a660001b6117c4565b610e6d7f5c713fe83826104f39ca1e62f003655982933a5729cb5a2806db9a00e1afae4160001b6117c4565b610e997f823dd964f339d269edd6079bb11047b524e63fe94809ca12d1b1c9754daf040560001b6117c4565b6000600360009054906101000a900460ff166001811115610ebd57610ebc61260f565b5b60006001811115610ed157610ed061260f565b5b149050610f007f231c19ef6b980ba8e94f78d79ef0d31bcdc41eb5c5050217b57b8734cf85b73660001b6117c4565b610f2c7f59d1d4e5fc11ad52d6477941ab2dcdb56578816ae2e1c165e4ab0747d346907560001b6117c4565b60007f000000000000000000000000000000000000000000000000000000000000000060025442610f5d9190612430565b119050610f8c7f8744520df688c7cb80bb658a59b39e14de5a3567df3d6e4d04bb9902ee87c86f60001b6117c4565b610fb87f5542de2237c69d2ca6dfa2de1f73329672a23404215cd2bd1b7b976db7faec9760001b6117c4565b600080600080549050119050610ff07ff78e3914d9bdd00c898070a17758fd8838d7bd9691028bf4a04700df3273e48d60001b6117c4565b61101b7e1312f491defd2b405eb6d39e460146f9900d79b29be88c2ccb0e497fc934e360001b6117c4565b6000804711905061104e7f18b152e8ef7fe9f0e965ff1e56a2f86eb8d3034e7d303befa4bc73f0880cb6e260001b6117c4565b61107a7fbbb3b296add50f926d021d7d6211297c02892cf90afb8d30ce9d9714aab5642760001b6117c4565b8280156110845750835b801561108d5750805b80156110965750815b95506110c47febf434ed18b64e3bbe6218189734ca296499e7d13e6472129d62627d5eae645b60001b6117c4565b6110f07f1bb3df762cf6fc7ccd481aab48535e9874ef1e2a9951a89780cfda7b102875a160001b6117c4565b856040518060400160405280600381526020017f30783000000000000000000000000000000000000000000000000000000000008152509550955050505050915091565b60006111627f299ed965bdab6f69880b8ef55f8c3825f5c9424aa000b4975227b959acaa20d460001b6117c4565b61118e7f1f401ba434b7b2458b459e2367c6e15ad0f164099a626ee3fd991713f9fbda0260001b6117c4565b6111ba7ff19e4ba449fd61e10ba3652ade237e05a3595c9cdd3cc1b4f71f41e2a8ad8ea760001b6117c4565b7f0000000000000000000000000000000000000000000000000000000000000000905090565b61120c7f6606868a55cd6b5aebf6b348ec37fb54f4ddb4ed363f811c988dd6b34aa6539a60001b6117c4565b6112387f29be653237eb429b58e24f6e2babda457876b428e66fca134fb13bc391f210a660001b6117c4565b6112647f2c352da8c2e6430b84ecb18f3a6e5239e1a1c61623d8de6a991ea36ebdbc642d60001b6117c4565b7f0000000000000000000000000000000000000000000000000000000000000000341015611316576112b87f6883e212f14c8610daba12c7716990bc4243fdf59989dbdd6b18f15d66971e8c60001b6117c4565b6112e47fc8d64cd34ce21b8cf14caf35d27ad7b191fdddc59aeada421a6019d4d538273660001b6117c4565b6040517fec269fd100000000000000000000000000000000000000000000000000000000815260040160405180910390fd5b6113427faec0efe05eed3850418801ea24a7443b6af4dfe30ab1b470b9e5af574e760f5d60001b6117c4565b61136e7fb86cb3e92e5dd656b9d79fcf5bfbc4e7e341f2a1d42c8eb9143a1999d2d86d9160001b6117c4565b61139a7f06c981d756511f71183cf0ea0cfae9aafcac648222842ae7409ec2a1c5c3019760001b6117c4565b600060018111156113ae576113ad61260f565b5b600360009054906101000a900460ff1660018111156113d0576113cf61260f565b5b1461145f576114017f374bb929c2828c097eeb81e6466cb13301c69c12591680696e4d37b33844709d60001b6117c4565b61142d7fbd912fbe62427e31873bc23e50fd8255899c907e0314ab0e352d21021b8dc7e360001b6117c4565b6040517f823ea8bb00000000000000000000000000000000000000000000000000000000815260040160405180910390fd5b61148b7ff326bb4245bd66d084b2f1a4d7f51a63e763b30cad64d5870c0c3a9c6268265c60001b6117c4565b6114b77fed39ba2f25b5c742243d606189192f9cae9fffe0dbb3fcc823a8acdfa4aeeb6f60001b6117c4565b6114e37ff8faf76dc3d9edd256937b1192778f597ce6dad19518272824c48d3c542e111e60001b6117c4565b6000339080600181540180825580915050600190039060005260206000200160009091909190916101000a81548173ffffffffffffffffffffffffffffffffffffffff021916908373ffffffffffffffffffffffffffffffffffffffff1602179055506115727fa300c90a485fb8ebcdd594ae4cbdb63b6831cd77fdd1ba44a9860fea3ce9b79d60001b6117c4565b61159e7f0ef6256dac20762fe6375f0fd47d7960fadce7e68600cded5d622b5aa9edc02660001b6117c4565b7f760dd919d6d83cc191dec007cff8b97b812ba90ebf43093b07132162705e585433346040516115cf92919061226e565b60405180910390a1565b60006116077f6d8ddeba6bd5aa647fe37912990b1f4f9b8fb991e71553ef145d4484f3bf863860001b6117c4565b6116337ff8320e7b66e8e9c4173722c6ca3d5dfeccaea806e189cdceb5823a649e7f2f8160001b6117c4565b61165f7f541e89e64e8fd4b8aa1803f24710f171da3bfff80add4f7a5672e9c44fb70ba360001b6117c4565b600254905090565b60006116957fe07c044dd43b71de484f23ead8c99103cf8e5bb05ee4478d15af3494c955e22960001b6117c4565b6116c17f7b6f27e0b84136245ea065be59e58f68815f0cf966d65940de8c14e1d87e05e860001b6117c4565b6116ed7fbbced4c8bedd37713dd3e76d5f3c6f28f92f7ef06370f75a6008aa13f6b3211660001b6117c4565b600082815481106117015761170061263e565b5b9060005260206000200160009054906101000a900473ffffffffffffffffffffffffffffffffffffffff169050919050565b60006117617fcf8c925b5a273503b6eaffe4339fcd6f09a33e384093d57868d292da0c7d26cc60001b6117c4565b61178d7f53c8500afedbe984c8a94870ca5bf65fd55aab4db2a23d6513b159cd8e80291a60001b6117c4565b6117b97f1f33de5f48a8099e4ea0e584447b18b8bf9339d71699cb54112a04cccdc39eaa60001b6117c4565b600080549050905090565b50565b6117f37fdbe31aab7b9495d904cbdfae7adfd495ec6ba1a04297b8b585151ef24dc4036f60001b6117c4565b61181f7fd562edf5c25f8b89c8572cd0cfc74bf1687e180e594f4547d9523bc76c5ad98860001b6117c4565b61184b7ffacad5678249bf1ea6e36d7f0aad3cb7a5ad4a7df81f117b72d31e4fc81d021060001b6117c4565b60008080549050826000815181106118665761186561263e565b5b60200260200101516118789190612580565b90506118a67f91a8fcfae9d94c5ec834d7e8881c2374bef9be3edd477a080c081aa368b08c3760001b6117c4565b6118d27fcb0cc95cfc37d3257ad038e8d4d8f59524e479612bb2caceb311f1f0e4656c6560001b6117c4565b60008082815481106118e7576118e661263e565b5b9060005260206000200160009054906101000a900473ffffffffffffffffffffffffffffffffffffffff1690506119407f7d3f875e86171f4e3446e1b272f50280cd8e68a3c767ed159d0a427f2969d2af60001b6117c4565b61196c7f6180fc1c0b99490766be4d6edf91d7f6695f354d4cd16b8c63503f36e1bf906b60001b6117c4565b80600160006101000a81548173ffffffffffffffffffffffffffffffffffffffff021916908373ffffffffffffffffffffffffffffffffffffffff1602179055506119d97fe63e93b0702bf5cce2c8714eef7e5f891a137694d0ed47792fbaa375e739719060001b6117c4565b611a057fedaad3334d7a743830d22afabf95aeca7cfb34352117abe80bc324b24038537060001b6117c4565b600067ffffffffffffffff811115611a2057611a1f61266d565b5b604051908082528060200260200182016040528015611a4e5781602001602082028036833780820191505090505b5060009080519060200190611a64929190611dc0565b50611a917f7041f90761613323f58431df91d59e3b3cebf1c48630ce706e2167615f105cd460001b6117c4565b611abd7fba6af9a1a3516f7adf14444fcda4759b5a5b1dc57e043e7bd38a86fd34129b8160001b6117c4565b60008173ffffffffffffffffffffffffffffffffffffffff1647604051611ae390612215565b60006040518083038185875af1925050503d8060008114611b20576040519150601f19603f3d011682016040523d82523d6000602084013e611b25565b606091505b50509050611b557f577b5d04c394a8f50c072082a89aa23d1421e2d9fb979496a144897fb1dee3c560001b6117c4565b611b817f4f3c3ab69c01dfa1c5ea0453050a576ac29a4c188929fbd891f40e41b5e0b99960001b6117c4565b42600281905550611bb47fc972f6ed7ebd872deafdf1a55a7576fce77568be4ad662bf681e41e80e9ba40f60001b6117c4565b611be07f850cb9c1062c015eeaa06af82d882973a660a0d7f1e908a255aff7980c4bafe860001b6117c4565b6000600360006101000a81548160ff02191690836001811115611c0657611c0561260f565b5b0217905550611c377f25bc8667cc8fc4e7bbbb93aa015d10d62d0d65798512778d2dc893cb1bdb27cd60001b6117c4565b611c637f1d5a07b1e80bcc0dd67c75efa476fd8c09865ae239b2465266c78716619ffc7560001b6117c4565b80611cf257611c947fd76be15029bcdf958d48f801325598219aa76e4eb8ea62500d85c5949862c6db60001b6117c4565b611cc07fc3c6186ea94e6a0a63c8c1a4b1059ef789bccd388488bfac510148633d82d9e960001b6117c4565b6040517f1c94012000000000000000000000000000000000000000000000000000000000815260040160405180910390fd5b611d1e7ff691b821b35b17c189e61ea09274f95ece44940186d27e050f660927e7fe49ae60001b6117c4565b611d4a7fcb6b11b9d5eb8695c4f193ebc8aa457d7d6ffbfa44dc0c39d3c586865088006860001b6117c4565b611d767f8b6c3e488a4cf0f5fe7f2661bebf3ffbed3b20f203da1c6ee9d0f766b34bde7560001b6117c4565b8173ffffffffffffffffffffffffffffffffffffffff167f5b690ec4a06fe979403046eaeea5b3ce38524683c3001f662c8b5a829632f7df60405160405180910390a25050505050565b828054828255906000526020600020908101928215611e39579160200282015b82811115611e385782518260006101000a81548173ffffffffffffffffffffffffffffffffffffffff021916908373ffffffffffffffffffffffffffffffffffffffff16021790555091602001919060010190611de0565b5b509050611e469190611e4a565b5090565b5b80821115611e63576000816000905550600101611e4b565b5090565b6000611e7a611e75846123ac565b612387565b90508083825260208201905082856020860282011115611e9d57611e9c6126a6565b5b60005b85811015611ecd5781611eb38882611fcb565b845260208401935060208301925050600181019050611ea0565b5050509392505050565b6000611eea611ee5846123d8565b612387565b905082815260208101848484011115611f0657611f056126ab565b5b611f1184828561250d565b509392505050565b600082601f830112611f2e57611f2d6126a1565b5b8135611f3e848260208601611e67565b91505092915050565b60008083601f840112611f5d57611f5c6126a1565b5b8235905067ffffffffffffffff811115611f7a57611f7961269c565b5b602083019150836001820283011115611f9657611f956126a6565b5b9250929050565b600082601f830112611fb257611fb16126a1565b5b8135611fc2848260208601611ed7565b91505092915050565b600081359050611fda816126e2565b92915050565b600081519050611fef816126e2565b92915050565b6000806020838503121561200c5761200b6126b5565b5b600083013567ffffffffffffffff81111561202a576120296126b0565b5b61203685828601611f47565b92509250509250929050565b600060208284031215612058576120576126b5565b5b600082013567ffffffffffffffff811115612076576120756126b0565b5b61208284828501611f9d565b91505092915050565b6000602082840312156120a1576120a06126b5565b5b60006120af84828501611fcb565b91505092915050565b6000602082840312156120ce576120cd6126b5565b5b60006120dc84828501611fe0565b91505092915050565b600080604083850312156120fc576120fb6126b5565b5b600061210a85828601611fcb565b925050602083013567ffffffffffffffff81111561212b5761212a6126b0565b5b61213785828601611f19565b9150509250929050565b61214a81612464565b82525050565b61215981612476565b82525050565b61216881612482565b82525050565b600061217982612409565b6121838185612414565b935061219381856020860161251c565b61219c816126ba565b840191505092915050565b6121b0816124fb565b82525050565b60006121c3600083612425565b91506121ce826126cb565b600082019050919050565b6121e28161249f565b82525050565b6121f1816124cd565b82525050565b612200816124d7565b82525050565b61220f816124e7565b82525050565b6000612220826121b6565b9150819050919050565b600060208201905061223f6000830184612141565b92915050565b600060408201905061225a6000830185612141565b6122676020830184612141565b9392505050565b60006040820190506122836000830185612141565b61229060208301846121e8565b9392505050565b60006040820190506122ac6000830185612150565b81810360208301526122be818461216e565b90509392505050565b600060a0820190506122dc600083018861215f565b6122e96020830187612206565b6122f660408301866121d9565b61230360608301856121f7565b61231060808301846121f7565b9695505050505050565b600060208201905061232f60008301846121a7565b92915050565b600060208201905061234a60008301846121e8565b92915050565b600060608201905061236560008301866121e8565b61237260208301856121e8565b61237f60408301846121e8565b949350505050565b60006123916123a2565b905061239d828261254f565b919050565b6000604051905090565b600067ffffffffffffffff8211156123c7576123c661266d565b5b602082029050602081019050919050565b600067ffffffffffffffff8211156123f3576123f261266d565b5b6123fc826126ba565b9050602081019050919050565b600081519050919050565b600082825260208201905092915050565b600081905092915050565b600061243b826124cd565b9150612446836124cd565b925082821015612459576124586125b1565b5b828203905092915050565b600061246f826124ad565b9050919050565b60008115159050919050565b6000819050919050565b600081905061249a826126ce565b919050565b600061ffff82169050919050565b600073ffffffffffffffffffffffffffffffffffffffff82169050919050565b6000819050919050565b600063ffffffff82169050919050565b600067ffffffffffffffff82169050919050565b60006125068261248c565b9050919050565b82818337600083830152505050565b60005b8381101561253a57808201518184015260208101905061251f565b83811115612549576000848401525b50505050565b612558826126ba565b810181811067ffffffffffffffff821117156125775761257661266d565b5b80604052505050565b600061258b826124cd565b9150612596836124cd565b9250826125a6576125a56125e0565b5b828206905092915050565b7f4e487b7100000000000000000000000000000000000000000000000000000000600052601160045260246000fd5b7f4e487b7100000000000000000000000000000000000000000000000000000000600052601260045260246000fd5b7f4e487b7100000000000000000000000000000000000000000000000000000000600052602160045260246000fd5b7f4e487b7100000000000000000000000000000000000000000000000000000000600052603260045260246000fd5b7f4e487b7100000000000000000000000000000000000000000000000000000000600052604160045260246000fd5b600080fd5b600080fd5b600080fd5b600080fd5b600080fd5b600080fd5b6000601f19601f8301169050919050565b50565b600281106126df576126de61260f565b5b50565b6126eb816124cd565b81146126f657600080fd5b5056fea2646970667358221220059443665ba473fb5413a14f2feb22a14ef0933916321e29a76e04f08656e57164736f6c63430008070033",
  "linkReferences": {},
  "deployedLinkReferences": {}
}