{
  "_format": "hh-sol-artifact-1",
  "contractName": "Lottery",
  "sourceName": "contracts/lottery.sol",
  "abi": [
    {
      "inputs": [
        {
          "internalType": "address",
          "name": "vrfCoordinatorV2",
          "type": "address"
        },
        {
          "internalType": "uint256",
          "name": "_entrancefee",
          "type": "uint256"
        }
      ],
      "stateMutability": "nonpayable",
      "type": "constructor"
    },
    {
      "inputs": [],
      "name": "Lottery__NotEnoughETHEntered",
      "type": "error"
    },
    {
      "inputs": [
        {
          "internalType": "address",
          "name": "have",
          "type": "address"
        },
        {
          "internalType": "address",
          "name": "want",
          "type": "address"
        }
      ],
      "name": "OnlyCoordinatorCanFulfill",
      "type": "error"
    },
    {
      "anonymous": false,
      "inputs": [
        {
          "indexed": false,
          "internalType": "address",
          "name": "player",
          "type": "address"
        },
        {
          "indexed": false,
          "internalType": "uint256",
          "name": "amount",
          "type": "uint256"
        }
      ],
      "name": "Lottery__PlayerEntered",
      "type": "event"
    },
    {
      "inputs": [],
      "name": "enterLottery",
      "outputs": [],
      "stateMutability": "payable",
      "type": "function"
    },
    {
      "inputs": [],
      "name": "getEntranceFee",
      "outputs": [
        {
          "internalType": "uint256",
          "name": "",
          "type": "uint256"
        }
      ],
      "stateMutability": "view",
      "type": "function"
    },
    {
      "inputs": [
        {
          "internalType": "uint256",
          "name": "index",
          "type": "uint256"
        }
      ],
      "name": "getPlayer",
      "outputs": [
        {
          "internalType": "address",
          "name": "",
          "type": "address"
        }
      ],
      "stateMutability": "view",
      "type": "function"
    },
    {
      "inputs": [
        {
          "internalType": "uint256",
          "name": "requestId",
          "type": "uint256"
        },
        {
          "internalType": "uint256[]",
          "name": "randomWords",
          "type": "uint256[]"
        }
      ],
      "name": "rawFulfillRandomWords",
      "outputs": [],
      "stateMutability": "nonpayable",
      "type": "function"
    },
    {
      "inputs": [],
      "name": "requestRandomWinner",
      "outputs": [],
      "stateMutability": "nonpayable",
      "type": "function"
    }
  ],
  "bytecode": "0x60c060405234801561001057600080fd5b5060405161081a38038061081a83398181016040528101906100329190610110565b818073ffffffffffffffffffffffffffffffffffffffff1660808173ffffffffffffffffffffffffffffffffffffffff1681525050508060a081815250505050610150565b600080fd5b600073ffffffffffffffffffffffffffffffffffffffff82169050919050565b60006100a78261007c565b9050919050565b6100b78161009c565b81146100c257600080fd5b50565b6000815190506100d4816100ae565b92915050565b6000819050919050565b6100ed816100da565b81146100f857600080fd5b50565b60008151905061010a816100e4565b92915050565b6000806040838503121561012757610126610077565b5b6000610135858286016100c5565b9250506020610146858286016100fb565b9150509250929050565b60805160a0516106976101836000396000818161010501526101ed01526000818161012b015261017f01526106976000f3fe60806040526004361061004a5760003560e01c806309bc33a71461004f5780631fe543e31461007a578063522a1f0b146100a3578063c1af5785146100ba578063e55ae4e8146100c4575b600080fd5b34801561005b57600080fd5b50610064610101565b6040516100719190610347565b60405180910390f35b34801561008657600080fd5b506100a1600480360381019061009c91906104fb565b610129565b005b3480156100af57600080fd5b506100b86101e9565b005b6100c26101eb565b005b3480156100d057600080fd5b506100eb60048036038101906100e69190610557565b6102e3565b6040516100f891906105c5565b60405180910390f35b60007f0000000000000000000000000000000000000000000000000000000000000000905090565b7f000000000000000000000000000000000000000000000000000000000000000073ffffffffffffffffffffffffffffffffffffffff163373ffffffffffffffffffffffffffffffffffffffff16146101db57337f00000000000000000000000000000000000000000000000000000000000000006040517f1cf993f40000000000000000000000000000000000000000000000000000000081526004016101d29291906105e0565b60405180910390fd5b6101e5828261032a565b5050565b565b7f0000000000000000000000000000000000000000000000000000000000000000341015610245576040517fec269fd100000000000000000000000000000000000000000000000000000000815260040160405180910390fd5b6000339080600181540180825580915050600190039060005260206000200160009091909190916101000a81548173ffffffffffffffffffffffffffffffffffffffff021916908373ffffffffffffffffffffffffffffffffffffffff1602179055507f760dd919d6d83cc191dec007cff8b97b812ba90ebf43093b07132162705e585433346040516102d9929190610609565b60405180910390a1565b60008082815481106102f8576102f7610632565b5b9060005260206000200160009054906101000a900473ffffffffffffffffffffffffffffffffffffffff169050919050565b5050565b6000819050919050565b6103418161032e565b82525050565b600060208201905061035c6000830184610338565b92915050565b6000604051905090565b600080fd5b600080fd5b61037f8161032e565b811461038a57600080fd5b50565b60008135905061039c81610376565b92915050565b600080fd5b6000601f19601f8301169050919050565b7f4e487b7100000000000000000000000000000000000000000000000000000000600052604160045260246000fd5b6103f0826103a7565b810181811067ffffffffffffffff8211171561040f5761040e6103b8565b5b80604052505050565b6000610422610362565b905061042e82826103e7565b919050565b600067ffffffffffffffff82111561044e5761044d6103b8565b5b602082029050602081019050919050565b600080fd5b600061047761047284610433565b610418565b9050808382526020820190506020840283018581111561049a5761049961045f565b5b835b818110156104c357806104af888261038d565b84526020840193505060208101905061049c565b5050509392505050565b600082601f8301126104e2576104e16103a2565b5b81356104f2848260208601610464565b91505092915050565b600080604083850312156105125761051161036c565b5b60006105208582860161038d565b925050602083013567ffffffffffffffff81111561054157610540610371565b5b61054d858286016104cd565b9150509250929050565b60006020828403121561056d5761056c61036c565b5b600061057b8482850161038d565b91505092915050565b600073ffffffffffffffffffffffffffffffffffffffff82169050919050565b60006105af82610584565b9050919050565b6105bf816105a4565b82525050565b60006020820190506105da60008301846105b6565b92915050565b60006040820190506105f560008301856105b6565b61060260208301846105b6565b9392505050565b600060408201905061061e60008301856105b6565b61062b6020830184610338565b9392505050565b7f4e487b7100000000000000000000000000000000000000000000000000000000600052603260045260246000fdfea26469706673582212207d1a9e41e5c31cf40914d60d6005221cf65f7fa7d68bc4914337ebb89b0d872d64736f6c63430008110033",
  "linkReferences": {},
  "deployedLinkReferences": {}
}