{
  "_format": "hh-sol-artifact-1",
  "contractName": "Lottery",
  "sourceName": "contracts/lottery.sol",
  "abi": [
    {
      "inputs": [
        {
          "internalType": "address",
          "name": "vrfCoordinatorV2",
          "type": "address"
        },
        {
          "internalType": "uint256",
          "name": "_entrancefee",
          "type": "uint256"
        },
        {
          "internalType": "bytes32",
          "name": "gasLane",
          "type": "bytes32"
        },
        {
          "internalType": "uint64",
          "name": "subscriptionId",
          "type": "uint64"
        },
        {
          "internalType": "uint32",
          "name": "callbackGasLimit",
          "type": "uint32"
        },
        {
          "internalType": "uint256",
          "name": "interval",
          "type": "uint256"
        }
      ],
      "stateMutability": "nonpayable",
      "type": "constructor"
    },
    {
      "inputs": [],
      "name": "Lottery__LotteryNotOpen",
      "type": "error"
    },
    {
      "inputs": [],
      "name": "Lottery__NotEnoughETHEntered",
      "type": "error"
    },
    {
      "inputs": [],
      "name": "Lottery__TransferFailed",
      "type": "error"
    },
    {
      "inputs": [
        {
          "internalType": "uint256",
          "name": "currentBalance",
          "type": "uint256"
        },
        {
          "internalType": "uint256",
          "name": "numPlayers",
          "type": "uint256"
        },
        {
          "internalType": "uint256",
          "name": "lotteryState",
          "type": "uint256"
        }
      ],
      "name": "Lottery__UpkeepNotNeeded",
      "type": "error"
    },
    {
      "inputs": [
        {
          "internalType": "address",
          "name": "have",
          "type": "address"
        },
        {
          "internalType": "address",
          "name": "want",
          "type": "address"
        }
      ],
      "name": "OnlyCoordinatorCanFulfill",
      "type": "error"
    },
    {
      "anonymous": false,
      "inputs": [
        {
          "indexed": false,
          "internalType": "address",
          "name": "player",
          "type": "address"
        },
        {
          "indexed": false,
          "internalType": "uint256",
          "name": "amount",
          "type": "uint256"
        }
      ],
      "name": "Lottery__PlayerEntered",
      "type": "event"
    },
    {
      "anonymous": false,
      "inputs": [
        {
          "indexed": true,
          "internalType": "uint256",
          "name": "requestId",
          "type": "uint256"
        }
      ],
      "name": "RequestedLotteryWinner",
      "type": "event"
    },
    {
      "anonymous": false,
      "inputs": [
        {
          "indexed": true,
          "internalType": "address",
          "name": "player",
          "type": "address"
        }
      ],
      "name": "WinnerPicked",
      "type": "event"
    },
    {
      "inputs": [
        {
          "internalType": "bytes",
          "name": "",
          "type": "bytes"
        }
      ],
      "name": "checkUpkeep",
      "outputs": [
        {
          "internalType": "bool",
          "name": "upkeepNeeded",
          "type": "bool"
        },
        {
          "internalType": "bytes",
          "name": "",
          "type": "bytes"
        }
      ],
      "stateMutability": "view",
      "type": "function"
    },
    {
      "inputs": [],
      "name": "enterLottery",
      "outputs": [],
      "stateMutability": "payable",
      "type": "function"
    },
    {
      "inputs": [],
      "name": "getEntranceFee",
      "outputs": [
        {
          "internalType": "uint256",
          "name": "",
          "type": "uint256"
        }
      ],
      "stateMutability": "view",
      "type": "function"
    },
    {
      "inputs": [],
      "name": "getLastTimeStamp",
      "outputs": [
        {
          "internalType": "uint256",
          "name": "",
          "type": "uint256"
        }
      ],
      "stateMutability": "view",
      "type": "function"
    },
    {
      "inputs": [],
      "name": "getLotteryState",
      "outputs": [
        {
          "internalType": "enum Lottery.LotteryState",
          "name": "",
          "type": "uint8"
        }
      ],
      "stateMutability": "view",
      "type": "function"
    },
    {
      "inputs": [],
      "name": "getNumWords",
      "outputs": [
        {
          "internalType": "uint256",
          "name": "",
          "type": "uint256"
        }
      ],
      "stateMutability": "pure",
      "type": "function"
    },
    {
      "inputs": [],
      "name": "getNumberOfPlayers",
      "outputs": [
        {
          "internalType": "uint256",
          "name": "",
          "type": "uint256"
        }
      ],
      "stateMutability": "view",
      "type": "function"
    },
    {
      "inputs": [
        {
          "internalType": "uint256",
          "name": "index",
          "type": "uint256"
        }
      ],
      "name": "getPlayer",
      "outputs": [
        {
          "internalType": "address",
          "name": "",
          "type": "address"
        }
      ],
      "stateMutability": "view",
      "type": "function"
    },
    {
      "inputs": [],
      "name": "getRecentWinner",
      "outputs": [
        {
          "internalType": "address",
          "name": "",
          "type": "address"
        }
      ],
      "stateMutability": "view",
      "type": "function"
    },
    {
      "inputs": [],
      "name": "getRequestConfirmations",
      "outputs": [
        {
          "internalType": "uint256",
          "name": "",
          "type": "uint256"
        }
      ],
      "stateMutability": "pure",
      "type": "function"
    },
    {
      "inputs": [
        {
          "internalType": "bytes",
          "name": "",
          "type": "bytes"
        }
      ],
      "name": "performUpkeep",
      "outputs": [],
      "stateMutability": "nonpayable",
      "type": "function"
    },
    {
      "inputs": [
        {
          "internalType": "uint256",
          "name": "requestId",
          "type": "uint256"
        },
        {
          "internalType": "uint256[]",
          "name": "randomWords",
          "type": "uint256[]"
        }
      ],
      "name": "rawFulfillRandomWords",
      "outputs": [],
      "stateMutability": "nonpayable",
      "type": "function"
    },
    {
      "inputs": [],
      "name": "requestRandomWinner",
      "outputs": [],
      "stateMutability": "nonpayable",
      "type": "function"
    }
  ],
  "bytecode": "0x6101606040523480156200001257600080fd5b50604051620019923803806200199283398181016040528101906200003891906200028d565b858073ffffffffffffffffffffffffffffffffffffffff1660808173ffffffffffffffffffffffffffffffffffffffff1681525050508460a081815250508573ffffffffffffffffffffffffffffffffffffffff1660c08173ffffffffffffffffffffffffffffffffffffffff16815250508360e081815250508267ffffffffffffffff166101008167ffffffffffffffff16815250508163ffffffff166101208163ffffffff16815250506000600160146101000a81548160ff021916908360018111156200010d576200010c62000329565b5b021790555080610140818152505050505050505062000358565b600080fd5b600073ffffffffffffffffffffffffffffffffffffffff82169050919050565b600062000159826200012c565b9050919050565b6200016b816200014c565b81146200017757600080fd5b50565b6000815190506200018b8162000160565b92915050565b6000819050919050565b620001a68162000191565b8114620001b257600080fd5b50565b600081519050620001c6816200019b565b92915050565b6000819050919050565b620001e181620001cc565b8114620001ed57600080fd5b50565b6000815190506200020181620001d6565b92915050565b600067ffffffffffffffff82169050919050565b620002268162000207565b81146200023257600080fd5b50565b60008151905062000246816200021b565b92915050565b600063ffffffff82169050919050565b62000267816200024c565b81146200027357600080fd5b50565b60008151905062000287816200025c565b92915050565b60008060008060008060c08789031215620002ad57620002ac62000127565b5b6000620002bd89828a016200017a565b9650506020620002d089828a01620001b5565b9550506040620002e389828a01620001f0565b9450506060620002f689828a0162000235565b93505060806200030989828a0162000276565b92505060a06200031c89828a01620001b5565b9150509295509295509295565b7f4e487b7100000000000000000000000000000000000000000000000000000000600052602160045260246000fd5b60805160a05160c05160e0516101005161012051610140516115b5620003dd60003960006107be01526000818161050101526106920152600081816104de015261066f0152600081816104bd015261064e01526000818161048101526106120152600081816102e6015261086501526000818161030c015261036001526115b56000f3fe6080604052600436106100c25760003560e01c80635f1b0fd81161007f578063c1af578511610059578063c1af578514610245578063c1c244e81461024f578063e55ae4e81461027a578063fd6673f5146102b7576100c2565b80635f1b0fd8146101b15780636b68c03c146101dc5780636e04ff0d14610207576100c2565b806309bc33a7146100c75780631fe543e3146100f25780634585e33b1461011b578063473f1ddc14610144578063522a1f0b1461016f57806353a2c19a14610186575b600080fd5b3480156100d357600080fd5b506100dc6102e2565b6040516100e99190610d16565b60405180910390f35b3480156100fe57600080fd5b5061011960048036038101906101149190610eca565b61030a565b005b34801561012757600080fd5b50610142600480360381019061013d9190610f81565b6103ca565b005b34801561015057600080fd5b506101596105ba565b604051610166919061100f565b60405180910390f35b34801561017b57600080fd5b506101846105e4565b005b34801561019257600080fd5b5061019b610748565b6040516101a89190610d16565b60405180910390f35b3480156101bd57600080fd5b506101c6610757565b6040516101d39190610d16565b60405180910390f35b3480156101e857600080fd5b506101f1610764565b6040516101fe91906110a1565b60405180910390f35b34801561021357600080fd5b5061022e60048036038101906102299190611171565b61077b565b60405161023c929190611254565b60405180910390f35b61024d610863565b005b34801561025b57600080fd5b506102646109c8565b6040516102719190610d16565b60405180910390f35b34801561028657600080fd5b506102a1600480360381019061029c9190611284565b6109d2565b6040516102ae919061100f565b60405180910390f35b3480156102c357600080fd5b506102cc610a19565b6040516102d99190610d16565b60405180910390f35b60007f0000000000000000000000000000000000000000000000000000000000000000905090565b7f000000000000000000000000000000000000000000000000000000000000000073ffffffffffffffffffffffffffffffffffffffff163373ffffffffffffffffffffffffffffffffffffffff16146103bc57337f00000000000000000000000000000000000000000000000000000000000000006040517f1cf993f40000000000000000000000000000000000000000000000000000000081526004016103b39291906112b1565b60405180910390fd5b6103c68282610a25565b5050565b60006103e46040518060200160405280600081525061077b565b509050806104535747600080549050600160149054906101000a900460ff1660018111156104155761041461102a565b5b6040517f6e195f2500000000000000000000000000000000000000000000000000000000815260040161044a939291906112da565b60405180910390fd5b60018060146101000a81548160ff021916908360018111156104785761047761102a565b5b021790555060007f000000000000000000000000000000000000000000000000000000000000000073ffffffffffffffffffffffffffffffffffffffff16635d3b1d307f00000000000000000000000000000000000000000000000000000000000000007f000000000000000000000000000000000000000000000000000000000000000060037f000000000000000000000000000000000000000000000000000000000000000060016040518663ffffffff1660e01b8152600401610542959493929190611389565b6020604051808303816000875af1158015610561573d6000803e3d6000fd5b505050506040513d601f19601f8201168201806040525081019061058591906113f1565b9050807febf56642252004c18a776f30d528e7a0ce8c5db14b6596fb6550f630c8a24c6c60405160405180910390a250505050565b6000600160009054906101000a900473ffffffffffffffffffffffffffffffffffffffff16905090565b60018060146101000a81548160ff021916908360018111156106095761060861102a565b5b021790555060007f000000000000000000000000000000000000000000000000000000000000000073ffffffffffffffffffffffffffffffffffffffff16635d3b1d307f00000000000000000000000000000000000000000000000000000000000000007f000000000000000000000000000000000000000000000000000000000000000060037f000000000000000000000000000000000000000000000000000000000000000060016040518663ffffffff1660e01b81526004016106d3959493929190611389565b6020604051808303816000875af11580156106f2573d6000803e3d6000fd5b505050506040513d601f19601f8201168201806040525081019061071691906113f1565b9050807febf56642252004c18a776f30d528e7a0ce8c5db14b6596fb6550f630c8a24c6c60405160405180910390a250565b6000600163ffffffff16905090565b6000600361ffff16905090565b6000600160149054906101000a900460ff16905090565b600060606000600160149054906101000a900460ff1660018111156107a3576107a261102a565b5b600060018111156107b7576107b661102a565b5b14905060007f0000000000000000000000000000000000000000000000000000000000000000600254426107eb919061144d565b1190506000806000805490501190506000804711905082801561080b5750835b80156108145750805b801561081d5750815b9550856040518060400160405280600381526020017f30783000000000000000000000000000000000000000000000000000000000008152509550955050505050915091565b7f00000000000000000000000000000000000000000000000000000000000000003410156108bd576040517fec269fd100000000000000000000000000000000000000000000000000000000815260040160405180910390fd5b600060018111156108d1576108d061102a565b5b600160149054906101000a900460ff1660018111156108f3576108f261102a565b5b1461092a576040517f823ea8bb00000000000000000000000000000000000000000000000000000000815260040160405180910390fd5b6000339080600181540180825580915050600190039060005260206000200160009091909190916101000a81548173ffffffffffffffffffffffffffffffffffffffff021916908373ffffffffffffffffffffffffffffffffffffffff1602179055507f760dd919d6d83cc191dec007cff8b97b812ba90ebf43093b07132162705e585433346040516109be929190611481565b60405180910390a1565b6000600254905090565b60008082815481106109e7576109e66114aa565b5b9060005260206000200160009054906101000a900473ffffffffffffffffffffffffffffffffffffffff169050919050565b60008080549050905090565b6000808054905082600081518110610a4057610a3f6114aa565b5b6020026020010151610a529190611508565b90506000808281548110610a6957610a686114aa565b5b9060005260206000200160009054906101000a900473ffffffffffffffffffffffffffffffffffffffff16905080600160006101000a81548173ffffffffffffffffffffffffffffffffffffffff021916908373ffffffffffffffffffffffffffffffffffffffff160217905550600067ffffffffffffffff811115610af257610af1610d87565b5b604051908082528060200260200182016040528015610b205781602001602082028036833780820191505090505b5060009080519060200190610b36929190610c56565b5060008173ffffffffffffffffffffffffffffffffffffffff1647604051610b5d9061156a565b60006040518083038185875af1925050503d8060008114610b9a576040519150601f19603f3d011682016040523d82523d6000602084013e610b9f565b606091505b50509050426002819055506000600160146101000a81548160ff02191690836001811115610bd057610bcf61102a565b5b021790555080610c0c576040517f1c94012000000000000000000000000000000000000000000000000000000000815260040160405180910390fd5b8173ffffffffffffffffffffffffffffffffffffffff167f5b690ec4a06fe979403046eaeea5b3ce38524683c3001f662c8b5a829632f7df60405160405180910390a25050505050565b828054828255906000526020600020908101928215610ccf579160200282015b82811115610cce5782518260006101000a81548173ffffffffffffffffffffffffffffffffffffffff021916908373ffffffffffffffffffffffffffffffffffffffff16021790555091602001919060010190610c76565b5b509050610cdc9190610ce0565b5090565b5b80821115610cf9576000816000905550600101610ce1565b5090565b6000819050919050565b610d1081610cfd565b82525050565b6000602082019050610d2b6000830184610d07565b92915050565b6000604051905090565b600080fd5b600080fd5b610d4e81610cfd565b8114610d5957600080fd5b50565b600081359050610d6b81610d45565b92915050565b600080fd5b6000601f19601f8301169050919050565b7f4e487b7100000000000000000000000000000000000000000000000000000000600052604160045260246000fd5b610dbf82610d76565b810181811067ffffffffffffffff82111715610dde57610ddd610d87565b5b80604052505050565b6000610df1610d31565b9050610dfd8282610db6565b919050565b600067ffffffffffffffff821115610e1d57610e1c610d87565b5b602082029050602081019050919050565b600080fd5b6000610e46610e4184610e02565b610de7565b90508083825260208201905060208402830185811115610e6957610e68610e2e565b5b835b81811015610e925780610e7e8882610d5c565b845260208401935050602081019050610e6b565b5050509392505050565b600082601f830112610eb157610eb0610d71565b5b8135610ec1848260208601610e33565b91505092915050565b60008060408385031215610ee157610ee0610d3b565b5b6000610eef85828601610d5c565b925050602083013567ffffffffffffffff811115610f1057610f0f610d40565b5b610f1c85828601610e9c565b9150509250929050565b600080fd5b60008083601f840112610f4157610f40610d71565b5b8235905067ffffffffffffffff811115610f5e57610f5d610f26565b5b602083019150836001820283011115610f7a57610f79610e2e565b5b9250929050565b60008060208385031215610f9857610f97610d3b565b5b600083013567ffffffffffffffff811115610fb657610fb5610d40565b5b610fc285828601610f2b565b92509250509250929050565b600073ffffffffffffffffffffffffffffffffffffffff82169050919050565b6000610ff982610fce565b9050919050565b61100981610fee565b82525050565b60006020820190506110246000830184611000565b92915050565b7f4e487b7100000000000000000000000000000000000000000000000000000000600052602160045260246000fd5b6002811061106a5761106961102a565b5b50565b600081905061107b82611059565b919050565b600061108b8261106d565b9050919050565b61109b81611080565b82525050565b60006020820190506110b66000830184611092565b92915050565b600080fd5b600067ffffffffffffffff8211156110dc576110db610d87565b5b6110e582610d76565b9050602081019050919050565b82818337600083830152505050565b600061111461110f846110c1565b610de7565b9050828152602081018484840111156111305761112f6110bc565b5b61113b8482856110f2565b509392505050565b600082601f83011261115857611157610d71565b5b8135611168848260208601611101565b91505092915050565b60006020828403121561118757611186610d3b565b5b600082013567ffffffffffffffff8111156111a5576111a4610d40565b5b6111b184828501611143565b91505092915050565b60008115159050919050565b6111cf816111ba565b82525050565b600081519050919050565b600082825260208201905092915050565b60005b8381101561120f5780820151818401526020810190506111f4565b60008484015250505050565b6000611226826111d5565b61123081856111e0565b93506112408185602086016111f1565b61124981610d76565b840191505092915050565b600060408201905061126960008301856111c6565b818103602083015261127b818461121b565b90509392505050565b60006020828403121561129a57611299610d3b565b5b60006112a884828501610d5c565b91505092915050565b60006040820190506112c66000830185611000565b6112d36020830184611000565b9392505050565b60006060820190506112ef6000830186610d07565b6112fc6020830185610d07565b6113096040830184610d07565b949350505050565b6000819050919050565b61132481611311565b82525050565b600067ffffffffffffffff82169050919050565b6113478161132a565b82525050565b600061ffff82169050919050565b6113648161134d565b82525050565b600063ffffffff82169050919050565b6113838161136a565b82525050565b600060a08201905061139e600083018861131b565b6113ab602083018761133e565b6113b8604083018661135b565b6113c5606083018561137a565b6113d2608083018461137a565b9695505050505050565b6000815190506113eb81610d45565b92915050565b60006020828403121561140757611406610d3b565b5b6000611415848285016113dc565b91505092915050565b7f4e487b7100000000000000000000000000000000000000000000000000000000600052601160045260246000fd5b600061145882610cfd565b915061146383610cfd565b925082820390508181111561147b5761147a61141e565b5b92915050565b60006040820190506114966000830185611000565b6114a36020830184610d07565b9392505050565b7f4e487b7100000000000000000000000000000000000000000000000000000000600052603260045260246000fd5b7f4e487b7100000000000000000000000000000000000000000000000000000000600052601260045260246000fd5b600061151382610cfd565b915061151e83610cfd565b92508261152e5761152d6114d9565b5b828206905092915050565b600081905092915050565b50565b6000611554600083611539565b915061155f82611544565b600082019050919050565b600061157582611547565b915081905091905056fea2646970667358221220a29d9e2908b44802be846cff4b363ce520d31fbab90d28c9a5a7bf58f39036b564736f6c63430008110033",
  "linkReferences": {},
  "deployedLinkReferences": {}
}