{
  "_format": "hh-sol-artifact-1",
  "contractName": "Lottery",
  "sourceName": "contracts/lottery.sol",
  "abi": [
    {
      "inputs": [
        {
          "internalType": "address",
          "name": "vrfCoordinatorV2",
          "type": "address"
        },
        {
          "internalType": "uint256",
          "name": "_entrancefee",
          "type": "uint256"
        },
        {
          "internalType": "bytes32",
          "name": "gasLane",
          "type": "bytes32"
        },
        {
          "internalType": "uint64",
          "name": "subscriptionId",
          "type": "uint64"
        },
        {
          "internalType": "uint32",
          "name": "callbackGasLimit",
          "type": "uint32"
        },
        {
          "internalType": "uint256",
          "name": "interval",
          "type": "uint256"
        }
      ],
      "stateMutability": "nonpayable",
      "type": "constructor"
    },
    {
      "inputs": [],
      "name": "Lottery__LotteryNotOpen",
      "type": "error"
    },
    {
      "inputs": [],
      "name": "Lottery__NotEnoughETHEntered",
      "type": "error"
    },
    {
      "inputs": [],
      "name": "Lottery__TransferFailed",
      "type": "error"
    },
    {
      "inputs": [
        {
          "internalType": "uint256",
          "name": "currentBalance",
          "type": "uint256"
        },
        {
          "internalType": "uint256",
          "name": "numPlayers",
          "type": "uint256"
        },
        {
          "internalType": "uint256",
          "name": "lotteryState",
          "type": "uint256"
        }
      ],
      "name": "Lottery__UpkeepNotNeeded",
      "type": "error"
    },
    {
      "inputs": [
        {
          "internalType": "address",
          "name": "have",
          "type": "address"
        },
        {
          "internalType": "address",
          "name": "want",
          "type": "address"
        }
      ],
      "name": "OnlyCoordinatorCanFulfill",
      "type": "error"
    },
    {
      "anonymous": false,
      "inputs": [
        {
          "indexed": false,
          "internalType": "address",
          "name": "player",
          "type": "address"
        },
        {
          "indexed": false,
          "internalType": "uint256",
          "name": "amount",
          "type": "uint256"
        }
      ],
      "name": "Lottery__PlayerEntered",
      "type": "event"
    },
    {
      "anonymous": false,
      "inputs": [
        {
          "indexed": true,
          "internalType": "uint256",
          "name": "requestId",
          "type": "uint256"
        }
      ],
      "name": "RequestedLotteryWinner",
      "type": "event"
    },
    {
      "anonymous": false,
      "inputs": [
        {
          "indexed": true,
          "internalType": "address",
          "name": "player",
          "type": "address"
        }
      ],
      "name": "WinnerPicked",
      "type": "event"
    },
    {
      "inputs": [
        {
          "internalType": "bytes",
          "name": "",
          "type": "bytes"
        }
      ],
      "name": "checkUpkeep",
      "outputs": [
        {
          "internalType": "bool",
          "name": "upkeepNeeded",
          "type": "bool"
        },
        {
          "internalType": "bytes",
          "name": "",
          "type": "bytes"
        }
      ],
      "stateMutability": "view",
      "type": "function"
    },
    {
      "inputs": [],
      "name": "enterLottery",
      "outputs": [],
      "stateMutability": "payable",
      "type": "function"
    },
    {
      "inputs": [],
      "name": "getEntranceFee",
      "outputs": [
        {
          "internalType": "uint256",
          "name": "",
          "type": "uint256"
        }
      ],
      "stateMutability": "view",
      "type": "function"
    },
    {
      "inputs": [],
      "name": "getLastTimeStamp",
      "outputs": [
        {
          "internalType": "uint256",
          "name": "",
          "type": "uint256"
        }
      ],
      "stateMutability": "view",
      "type": "function"
    },
    {
      "inputs": [],
      "name": "getLotteryState",
      "outputs": [
        {
          "internalType": "enum Lottery.LotteryState",
          "name": "",
          "type": "uint8"
        }
      ],
      "stateMutability": "view",
      "type": "function"
    },
    {
      "inputs": [],
      "name": "getNumWords",
      "outputs": [
        {
          "internalType": "uint256",
          "name": "",
          "type": "uint256"
        }
      ],
      "stateMutability": "pure",
      "type": "function"
    },
    {
      "inputs": [],
      "name": "getNumberOfPlayers",
      "outputs": [
        {
          "internalType": "uint256",
          "name": "",
          "type": "uint256"
        }
      ],
      "stateMutability": "view",
      "type": "function"
    },
    {
      "inputs": [
        {
          "internalType": "uint256",
          "name": "index",
          "type": "uint256"
        }
      ],
      "name": "getPlayer",
      "outputs": [
        {
          "internalType": "address",
          "name": "",
          "type": "address"
        }
      ],
      "stateMutability": "view",
      "type": "function"
    },
    {
      "inputs": [],
      "name": "getRecentWinner",
      "outputs": [
        {
          "internalType": "address",
          "name": "",
          "type": "address"
        }
      ],
      "stateMutability": "view",
      "type": "function"
    },
    {
      "inputs": [],
      "name": "getRequestConfirmations",
      "outputs": [
        {
          "internalType": "uint256",
          "name": "",
          "type": "uint256"
        }
      ],
      "stateMutability": "pure",
      "type": "function"
    },
    {
      "inputs": [
        {
          "internalType": "bytes",
          "name": "",
          "type": "bytes"
        }
      ],
      "name": "performUpkeep",
      "outputs": [],
      "stateMutability": "nonpayable",
      "type": "function"
    },
    {
      "inputs": [
        {
          "internalType": "uint256",
          "name": "requestId",
          "type": "uint256"
        },
        {
          "internalType": "uint256[]",
          "name": "randomWords",
          "type": "uint256[]"
        }
      ],
      "name": "rawFulfillRandomWords",
      "outputs": [],
      "stateMutability": "nonpayable",
      "type": "function"
    },
    {
      "inputs": [],
      "name": "requestRandomWinner",
      "outputs": [],
      "stateMutability": "nonpayable",
      "type": "function"
    }
  ],
  "bytecode": "0x6101606040523480156200001257600080fd5b50604051620019943803806200199483398181016040528101906200003891906200028d565b858073ffffffffffffffffffffffffffffffffffffffff1660808173ffffffffffffffffffffffffffffffffffffffff1681525050508460a081815250508573ffffffffffffffffffffffffffffffffffffffff166101208173ffffffffffffffffffffffffffffffffffffffff16815250508360c081815250508267ffffffffffffffff1660e08167ffffffffffffffff16815250508163ffffffff166101008163ffffffff16815250506000600360006101000a81548160ff021916908360018111156200010d576200010c62000329565b5b021790555080610140818152505050505050505062000358565b600080fd5b600073ffffffffffffffffffffffffffffffffffffffff82169050919050565b600062000159826200012c565b9050919050565b6200016b816200014c565b81146200017757600080fd5b50565b6000815190506200018b8162000160565b92915050565b6000819050919050565b620001a68162000191565b8114620001b257600080fd5b50565b600081519050620001c6816200019b565b92915050565b6000819050919050565b620001e181620001cc565b8114620001ed57600080fd5b50565b6000815190506200020181620001d6565b92915050565b600067ffffffffffffffff82169050919050565b620002268162000207565b81146200023257600080fd5b50565b60008151905062000246816200021b565b92915050565b600063ffffffff82169050919050565b62000267816200024c565b81146200027357600080fd5b50565b60008151905062000287816200025c565b92915050565b60008060008060008060c08789031215620002ad57620002ac62000127565b5b6000620002bd89828a016200017a565b9650506020620002d089828a01620001b5565b9550506040620002e389828a01620001f0565b9450506060620002f689828a0162000235565b93505060806200030989828a0162000276565b92505060a06200031c89828a01620001b5565b9150509295509295509295565b7f4e487b7100000000000000000000000000000000000000000000000000000000600052602160045260246000fd5b60805160a05160c05160e0516101005161012051610140516115b7620003dd60003960006107c0015260008181610482015261061401526000818161050201526106940152600081816104df01526106710152600081816104be01526106500152600081816102e6015261086701526000818161030c015261036001526115b76000f3fe6080604052600436106100c25760003560e01c80635f1b0fd81161007f578063c1af578511610059578063c1af578514610245578063c1c244e81461024f578063e55ae4e81461027a578063fd6673f5146102b7576100c2565b80635f1b0fd8146101b15780636b68c03c146101dc5780636e04ff0d14610207576100c2565b806309bc33a7146100c75780631fe543e3146100f25780634585e33b1461011b578063473f1ddc14610144578063522a1f0b1461016f57806353a2c19a14610186575b600080fd5b3480156100d357600080fd5b506100dc6102e2565b6040516100e99190610d18565b60405180910390f35b3480156100fe57600080fd5b5061011960048036038101906101149190610ecc565b61030a565b005b34801561012757600080fd5b50610142600480360381019061013d9190610f83565b6103ca565b005b34801561015057600080fd5b506101596105bb565b6040516101669190611011565b60405180910390f35b34801561017b57600080fd5b506101846105e5565b005b34801561019257600080fd5b5061019b61074a565b6040516101a89190610d18565b60405180910390f35b3480156101bd57600080fd5b506101c6610759565b6040516101d39190610d18565b60405180910390f35b3480156101e857600080fd5b506101f1610766565b6040516101fe91906110a3565b60405180910390f35b34801561021357600080fd5b5061022e60048036038101906102299190611173565b61077d565b60405161023c929190611256565b60405180910390f35b61024d610865565b005b34801561025b57600080fd5b506102646109ca565b6040516102719190610d18565b60405180910390f35b34801561028657600080fd5b506102a1600480360381019061029c9190611286565b6109d4565b6040516102ae9190611011565b60405180910390f35b3480156102c357600080fd5b506102cc610a1b565b6040516102d99190610d18565b60405180910390f35b60007f0000000000000000000000000000000000000000000000000000000000000000905090565b7f000000000000000000000000000000000000000000000000000000000000000073ffffffffffffffffffffffffffffffffffffffff163373ffffffffffffffffffffffffffffffffffffffff16146103bc57337f00000000000000000000000000000000000000000000000000000000000000006040517f1cf993f40000000000000000000000000000000000000000000000000000000081526004016103b39291906112b3565b60405180910390fd5b6103c68282610a27565b5050565b60006103e46040518060200160405280600081525061077d565b509050806104535747600080549050600360009054906101000a900460ff1660018111156104155761041461102c565b5b6040517f6e195f2500000000000000000000000000000000000000000000000000000000815260040161044a939291906112dc565b60405180910390fd5b6001600360006101000a81548160ff021916908360018111156104795761047861102c565b5b021790555060007f000000000000000000000000000000000000000000000000000000000000000073ffffffffffffffffffffffffffffffffffffffff16635d3b1d307f00000000000000000000000000000000000000000000000000000000000000007f000000000000000000000000000000000000000000000000000000000000000060037f000000000000000000000000000000000000000000000000000000000000000060016040518663ffffffff1660e01b815260040161054395949392919061138b565b6020604051808303816000875af1158015610562573d6000803e3d6000fd5b505050506040513d601f19601f8201168201806040525081019061058691906113f3565b9050807febf56642252004c18a776f30d528e7a0ce8c5db14b6596fb6550f630c8a24c6c60405160405180910390a250505050565b6000600160009054906101000a900473ffffffffffffffffffffffffffffffffffffffff16905090565b6001600360006101000a81548160ff0219169083600181111561060b5761060a61102c565b5b021790555060007f000000000000000000000000000000000000000000000000000000000000000073ffffffffffffffffffffffffffffffffffffffff16635d3b1d307f00000000000000000000000000000000000000000000000000000000000000007f000000000000000000000000000000000000000000000000000000000000000060037f000000000000000000000000000000000000000000000000000000000000000060016040518663ffffffff1660e01b81526004016106d595949392919061138b565b6020604051808303816000875af11580156106f4573d6000803e3d6000fd5b505050506040513d601f19601f8201168201806040525081019061071891906113f3565b9050807febf56642252004c18a776f30d528e7a0ce8c5db14b6596fb6550f630c8a24c6c60405160405180910390a250565b6000600163ffffffff16905090565b6000600361ffff16905090565b6000600360009054906101000a900460ff16905090565b600060606000600360009054906101000a900460ff1660018111156107a5576107a461102c565b5b600060018111156107b9576107b861102c565b5b14905060007f0000000000000000000000000000000000000000000000000000000000000000600254426107ed919061144f565b1190506000806000805490501190506000804711905082801561080d5750835b80156108165750805b801561081f5750815b9550856040518060400160405280600381526020017f30783000000000000000000000000000000000000000000000000000000000008152509550955050505050915091565b7f00000000000000000000000000000000000000000000000000000000000000003410156108bf576040517fec269fd100000000000000000000000000000000000000000000000000000000815260040160405180910390fd5b600060018111156108d3576108d261102c565b5b600360009054906101000a900460ff1660018111156108f5576108f461102c565b5b1461092c576040517f823ea8bb00000000000000000000000000000000000000000000000000000000815260040160405180910390fd5b6000339080600181540180825580915050600190039060005260206000200160009091909190916101000a81548173ffffffffffffffffffffffffffffffffffffffff021916908373ffffffffffffffffffffffffffffffffffffffff1602179055507f760dd919d6d83cc191dec007cff8b97b812ba90ebf43093b07132162705e585433346040516109c0929190611483565b60405180910390a1565b6000600254905090565b60008082815481106109e9576109e86114ac565b5b9060005260206000200160009054906101000a900473ffffffffffffffffffffffffffffffffffffffff169050919050565b60008080549050905090565b6000808054905082600081518110610a4257610a416114ac565b5b6020026020010151610a54919061150a565b90506000808281548110610a6b57610a6a6114ac565b5b9060005260206000200160009054906101000a900473ffffffffffffffffffffffffffffffffffffffff16905080600160006101000a81548173ffffffffffffffffffffffffffffffffffffffff021916908373ffffffffffffffffffffffffffffffffffffffff160217905550600067ffffffffffffffff811115610af457610af3610d89565b5b604051908082528060200260200182016040528015610b225781602001602082028036833780820191505090505b5060009080519060200190610b38929190610c58565b5060008173ffffffffffffffffffffffffffffffffffffffff1647604051610b5f9061156c565b60006040518083038185875af1925050503d8060008114610b9c576040519150601f19603f3d011682016040523d82523d6000602084013e610ba1565b606091505b50509050426002819055506000600360006101000a81548160ff02191690836001811115610bd257610bd161102c565b5b021790555080610c0e576040517f1c94012000000000000000000000000000000000000000000000000000000000815260040160405180910390fd5b8173ffffffffffffffffffffffffffffffffffffffff167f5b690ec4a06fe979403046eaeea5b3ce38524683c3001f662c8b5a829632f7df60405160405180910390a25050505050565b828054828255906000526020600020908101928215610cd1579160200282015b82811115610cd05782518260006101000a81548173ffffffffffffffffffffffffffffffffffffffff021916908373ffffffffffffffffffffffffffffffffffffffff16021790555091602001919060010190610c78565b5b509050610cde9190610ce2565b5090565b5b80821115610cfb576000816000905550600101610ce3565b5090565b6000819050919050565b610d1281610cff565b82525050565b6000602082019050610d2d6000830184610d09565b92915050565b6000604051905090565b600080fd5b600080fd5b610d5081610cff565b8114610d5b57600080fd5b50565b600081359050610d6d81610d47565b92915050565b600080fd5b6000601f19601f8301169050919050565b7f4e487b7100000000000000000000000000000000000000000000000000000000600052604160045260246000fd5b610dc182610d78565b810181811067ffffffffffffffff82111715610de057610ddf610d89565b5b80604052505050565b6000610df3610d33565b9050610dff8282610db8565b919050565b600067ffffffffffffffff821115610e1f57610e1e610d89565b5b602082029050602081019050919050565b600080fd5b6000610e48610e4384610e04565b610de9565b90508083825260208201905060208402830185811115610e6b57610e6a610e30565b5b835b81811015610e945780610e808882610d5e565b845260208401935050602081019050610e6d565b5050509392505050565b600082601f830112610eb357610eb2610d73565b5b8135610ec3848260208601610e35565b91505092915050565b60008060408385031215610ee357610ee2610d3d565b5b6000610ef185828601610d5e565b925050602083013567ffffffffffffffff811115610f1257610f11610d42565b5b610f1e85828601610e9e565b9150509250929050565b600080fd5b60008083601f840112610f4357610f42610d73565b5b8235905067ffffffffffffffff811115610f6057610f5f610f28565b5b602083019150836001820283011115610f7c57610f7b610e30565b5b9250929050565b60008060208385031215610f9a57610f99610d3d565b5b600083013567ffffffffffffffff811115610fb857610fb7610d42565b5b610fc485828601610f2d565b92509250509250929050565b600073ffffffffffffffffffffffffffffffffffffffff82169050919050565b6000610ffb82610fd0565b9050919050565b61100b81610ff0565b82525050565b60006020820190506110266000830184611002565b92915050565b7f4e487b7100000000000000000000000000000000000000000000000000000000600052602160045260246000fd5b6002811061106c5761106b61102c565b5b50565b600081905061107d8261105b565b919050565b600061108d8261106f565b9050919050565b61109d81611082565b82525050565b60006020820190506110b86000830184611094565b92915050565b600080fd5b600067ffffffffffffffff8211156110de576110dd610d89565b5b6110e782610d78565b9050602081019050919050565b82818337600083830152505050565b6000611116611111846110c3565b610de9565b905082815260208101848484011115611132576111316110be565b5b61113d8482856110f4565b509392505050565b600082601f83011261115a57611159610d73565b5b813561116a848260208601611103565b91505092915050565b60006020828403121561118957611188610d3d565b5b600082013567ffffffffffffffff8111156111a7576111a6610d42565b5b6111b384828501611145565b91505092915050565b60008115159050919050565b6111d1816111bc565b82525050565b600081519050919050565b600082825260208201905092915050565b60005b838110156112115780820151818401526020810190506111f6565b60008484015250505050565b6000611228826111d7565b61123281856111e2565b93506112428185602086016111f3565b61124b81610d78565b840191505092915050565b600060408201905061126b60008301856111c8565b818103602083015261127d818461121d565b90509392505050565b60006020828403121561129c5761129b610d3d565b5b60006112aa84828501610d5e565b91505092915050565b60006040820190506112c86000830185611002565b6112d56020830184611002565b9392505050565b60006060820190506112f16000830186610d09565b6112fe6020830185610d09565b61130b6040830184610d09565b949350505050565b6000819050919050565b61132681611313565b82525050565b600067ffffffffffffffff82169050919050565b6113498161132c565b82525050565b600061ffff82169050919050565b6113668161134f565b82525050565b600063ffffffff82169050919050565b6113858161136c565b82525050565b600060a0820190506113a0600083018861131d565b6113ad6020830187611340565b6113ba604083018661135d565b6113c7606083018561137c565b6113d4608083018461137c565b9695505050505050565b6000815190506113ed81610d47565b92915050565b60006020828403121561140957611408610d3d565b5b6000611417848285016113de565b91505092915050565b7f4e487b7100000000000000000000000000000000000000000000000000000000600052601160045260246000fd5b600061145a82610cff565b915061146583610cff565b925082820390508181111561147d5761147c611420565b5b92915050565b60006040820190506114986000830185611002565b6114a56020830184610d09565b9392505050565b7f4e487b7100000000000000000000000000000000000000000000000000000000600052603260045260246000fd5b7f4e487b7100000000000000000000000000000000000000000000000000000000600052601260045260246000fd5b600061151582610cff565b915061152083610cff565b9250826115305761152f6114db565b5b828206905092915050565b600081905092915050565b50565b600061155660008361153b565b915061156182611546565b600082019050919050565b600061157782611549565b915081905091905056fea2646970667358221220eda62a3219a8049453b5cdb4542d2c9469a47ec2d465c97833902fc08339f47464736f6c63430008110033",
  "linkReferences": {},
  "deployedLinkReferences": {}
}