{
  "_format": "hh-sol-artifact-1",
  "contractName": "Lottery",
  "sourceName": "contracts/lottery.sol",
  "abi": [
    {
      "inputs": [
        {
          "internalType": "address",
          "name": "vrfCoordinatorV2",
          "type": "address"
        },
        {
          "internalType": "uint256",
          "name": "_entrancefee",
          "type": "uint256"
        },
        {
          "internalType": "bytes32",
          "name": "gasLane",
          "type": "bytes32"
        },
        {
          "internalType": "uint64",
          "name": "subscriptionId",
          "type": "uint64"
        },
        {
          "internalType": "uint32",
          "name": "callbackGasLimit",
          "type": "uint32"
        }
      ],
      "stateMutability": "nonpayable",
      "type": "constructor"
    },
    {
      "inputs": [],
      "name": "Lottery__NotEnoughETHEntered",
      "type": "error"
    },
    {
      "inputs": [],
      "name": "Lottery__TransferFailed",
      "type": "error"
    },
    {
      "inputs": [
        {
          "internalType": "address",
          "name": "have",
          "type": "address"
        },
        {
          "internalType": "address",
          "name": "want",
          "type": "address"
        }
      ],
      "name": "OnlyCoordinatorCanFulfill",
      "type": "error"
    },
    {
      "anonymous": false,
      "inputs": [
        {
          "indexed": false,
          "internalType": "address",
          "name": "player",
          "type": "address"
        },
        {
          "indexed": false,
          "internalType": "uint256",
          "name": "amount",
          "type": "uint256"
        }
      ],
      "name": "Lottery__PlayerEntered",
      "type": "event"
    },
    {
      "anonymous": false,
      "inputs": [
        {
          "indexed": true,
          "internalType": "uint256",
          "name": "requestId",
          "type": "uint256"
        }
      ],
      "name": "RequestedLotteryWinner",
      "type": "event"
    },
    {
      "anonymous": false,
      "inputs": [
        {
          "indexed": true,
          "internalType": "address",
          "name": "player",
          "type": "address"
        }
      ],
      "name": "WinnerPicked",
      "type": "event"
    },
    {
      "inputs": [],
      "name": "enterLottery",
      "outputs": [],
      "stateMutability": "payable",
      "type": "function"
    },
    {
      "inputs": [],
      "name": "getEntranceFee",
      "outputs": [
        {
          "internalType": "uint256",
          "name": "",
          "type": "uint256"
        }
      ],
      "stateMutability": "view",
      "type": "function"
    },
    {
      "inputs": [
        {
          "internalType": "uint256",
          "name": "index",
          "type": "uint256"
        }
      ],
      "name": "getPlayer",
      "outputs": [
        {
          "internalType": "address",
          "name": "",
          "type": "address"
        }
      ],
      "stateMutability": "view",
      "type": "function"
    },
    {
      "inputs": [],
      "name": "getRecentWinner",
      "outputs": [
        {
          "internalType": "address",
          "name": "",
          "type": "address"
        }
      ],
      "stateMutability": "view",
      "type": "function"
    },
    {
      "inputs": [
        {
          "internalType": "uint256",
          "name": "requestId",
          "type": "uint256"
        },
        {
          "internalType": "uint256[]",
          "name": "randomWords",
          "type": "uint256[]"
        }
      ],
      "name": "rawFulfillRandomWords",
      "outputs": [],
      "stateMutability": "nonpayable",
      "type": "function"
    },
    {
      "inputs": [],
      "name": "requestRandomWinner",
      "outputs": [],
      "stateMutability": "nonpayable",
      "type": "function"
    }
  ],
  "bytecode": "0x6101406040523480156200001257600080fd5b5060405162000eb838038062000eb8833981810160405281019062000038919062000255565b848073ffffffffffffffffffffffffffffffffffffffff1660808173ffffffffffffffffffffffffffffffffffffffff1681525050508360a081815250508473ffffffffffffffffffffffffffffffffffffffff1660c08173ffffffffffffffffffffffffffffffffffffffff16815250508260e081815250508167ffffffffffffffff166101008167ffffffffffffffff16815250508063ffffffff166101208163ffffffff16815250505050505050620002dd565b600080fd5b600073ffffffffffffffffffffffffffffffffffffffff82169050919050565b60006200012182620000f4565b9050919050565b620001338162000114565b81146200013f57600080fd5b50565b600081519050620001538162000128565b92915050565b6000819050919050565b6200016e8162000159565b81146200017a57600080fd5b50565b6000815190506200018e8162000163565b92915050565b6000819050919050565b620001a98162000194565b8114620001b557600080fd5b50565b600081519050620001c9816200019e565b92915050565b600067ffffffffffffffff82169050919050565b620001ee81620001cf565b8114620001fa57600080fd5b50565b6000815190506200020e81620001e3565b92915050565b600063ffffffff82169050919050565b6200022f8162000214565b81146200023b57600080fd5b50565b6000815190506200024f8162000224565b92915050565b600080600080600060a08688031215620002745762000273620000ef565b5b6000620002848882890162000142565b955050602062000297888289016200017d565b9450506040620002aa88828901620001b8565b9350506060620002bd88828901620001fd565b9250506080620002d0888289016200023e565b9150509295509295909350565b60805160a05160c05160e0516101005161012051610b7d6200033b60003960006102cd015260006102aa015260006102890152600061024d01526000818161013b015261038501526000818161016101526101b50152610b7d6000f3fe6080604052600436106100555760003560e01c806309bc33a71461005a5780631fe543e314610085578063473f1ddc146100ae578063522a1f0b146100d9578063c1af5785146100f0578063e55ae4e8146100fa575b600080fd5b34801561006657600080fd5b5061006f610137565b60405161007c919061067a565b60405180910390f35b34801561009157600080fd5b506100ac60048036038101906100a7919061082e565b61015f565b005b3480156100ba57600080fd5b506100c361021f565b6040516100d091906108cb565b60405180910390f35b3480156100e557600080fd5b506100ee610249565b005b6100f8610383565b005b34801561010657600080fd5b50610121600480360381019061011c91906108e6565b61047b565b60405161012e91906108cb565b60405180910390f35b60007f0000000000000000000000000000000000000000000000000000000000000000905090565b7f000000000000000000000000000000000000000000000000000000000000000073ffffffffffffffffffffffffffffffffffffffff163373ffffffffffffffffffffffffffffffffffffffff161461021157337f00000000000000000000000000000000000000000000000000000000000000006040517f1cf993f4000000000000000000000000000000000000000000000000000000008152600401610208929190610913565b60405180910390fd5b61021b82826104c2565b5050565b6000600160009054906101000a900473ffffffffffffffffffffffffffffffffffffffff16905090565b60007f000000000000000000000000000000000000000000000000000000000000000073ffffffffffffffffffffffffffffffffffffffff16635d3b1d307f00000000000000000000000000000000000000000000000000000000000000007f000000000000000000000000000000000000000000000000000000000000000060037f000000000000000000000000000000000000000000000000000000000000000060016040518663ffffffff1660e01b815260040161030e9594939291906109b4565b6020604051808303816000875af115801561032d573d6000803e3d6000fd5b505050506040513d601f19601f820116820180604052508101906103519190610a1c565b9050807febf56642252004c18a776f30d528e7a0ce8c5db14b6596fb6550f630c8a24c6c60405160405180910390a250565b7f00000000000000000000000000000000000000000000000000000000000000003410156103dd576040517fec269fd100000000000000000000000000000000000000000000000000000000815260040160405180910390fd5b6000339080600181540180825580915050600190039060005260206000200160009091909190916101000a81548173ffffffffffffffffffffffffffffffffffffffff021916908373ffffffffffffffffffffffffffffffffffffffff1602179055507f760dd919d6d83cc191dec007cff8b97b812ba90ebf43093b07132162705e58543334604051610471929190610a49565b60405180910390a1565b60008082815481106104905761048f610a72565b5b9060005260206000200160009054906101000a900473ffffffffffffffffffffffffffffffffffffffff169050919050565b60008080549050826000815181106104dd576104dc610a72565b5b60200260200101516104ef9190610ad0565b9050600080828154811061050657610505610a72565b5b9060005260206000200160009054906101000a900473ffffffffffffffffffffffffffffffffffffffff16905080600160006101000a81548173ffffffffffffffffffffffffffffffffffffffff021916908373ffffffffffffffffffffffffffffffffffffffff16021790555060008173ffffffffffffffffffffffffffffffffffffffff164760405161059a90610b32565b60006040518083038185875af1925050503d80600081146105d7576040519150601f19603f3d011682016040523d82523d6000602084013e6105dc565b606091505b5050905080610617576040517f1c94012000000000000000000000000000000000000000000000000000000000815260040160405180910390fd5b8173ffffffffffffffffffffffffffffffffffffffff167f5b690ec4a06fe979403046eaeea5b3ce38524683c3001f662c8b5a829632f7df60405160405180910390a25050505050565b6000819050919050565b61067481610661565b82525050565b600060208201905061068f600083018461066b565b92915050565b6000604051905090565b600080fd5b600080fd5b6106b281610661565b81146106bd57600080fd5b50565b6000813590506106cf816106a9565b92915050565b600080fd5b6000601f19601f8301169050919050565b7f4e487b7100000000000000000000000000000000000000000000000000000000600052604160045260246000fd5b610723826106da565b810181811067ffffffffffffffff82111715610742576107416106eb565b5b80604052505050565b6000610755610695565b9050610761828261071a565b919050565b600067ffffffffffffffff821115610781576107806106eb565b5b602082029050602081019050919050565b600080fd5b60006107aa6107a584610766565b61074b565b905080838252602082019050602084028301858111156107cd576107cc610792565b5b835b818110156107f657806107e288826106c0565b8452602084019350506020810190506107cf565b5050509392505050565b600082601f830112610815576108146106d5565b5b8135610825848260208601610797565b91505092915050565b600080604083850312156108455761084461069f565b5b6000610853858286016106c0565b925050602083013567ffffffffffffffff811115610874576108736106a4565b5b61088085828601610800565b9150509250929050565b600073ffffffffffffffffffffffffffffffffffffffff82169050919050565b60006108b58261088a565b9050919050565b6108c5816108aa565b82525050565b60006020820190506108e060008301846108bc565b92915050565b6000602082840312156108fc576108fb61069f565b5b600061090a848285016106c0565b91505092915050565b600060408201905061092860008301856108bc565b61093560208301846108bc565b9392505050565b6000819050919050565b61094f8161093c565b82525050565b600067ffffffffffffffff82169050919050565b61097281610955565b82525050565b600061ffff82169050919050565b61098f81610978565b82525050565b600063ffffffff82169050919050565b6109ae81610995565b82525050565b600060a0820190506109c96000830188610946565b6109d66020830187610969565b6109e36040830186610986565b6109f060608301856109a5565b6109fd60808301846109a5565b9695505050505050565b600081519050610a16816106a9565b92915050565b600060208284031215610a3257610a3161069f565b5b6000610a4084828501610a07565b91505092915050565b6000604082019050610a5e60008301856108bc565b610a6b602083018461066b565b9392505050565b7f4e487b7100000000000000000000000000000000000000000000000000000000600052603260045260246000fd5b7f4e487b7100000000000000000000000000000000000000000000000000000000600052601260045260246000fd5b6000610adb82610661565b9150610ae683610661565b925082610af657610af5610aa1565b5b828206905092915050565b600081905092915050565b50565b6000610b1c600083610b01565b9150610b2782610b0c565b600082019050919050565b6000610b3d82610b0f565b915081905091905056fea2646970667358221220ec0e2fff1d60530d263a0b77e55eea41a99f35d01ad4011315a33b2a0244617264736f6c63430008110033",
  "linkReferences": {},
  "deployedLinkReferences": {}
}